:0400000007EF00F016
:0A000800318275ED06F04EEF07F0AF
:1008000000496E697469616C697A696E672E2E2E73
:100810000057656C636F6D65210023002A0030006E
:100820003100320033003400350036003700380024
:0B08300039004100420043004400007A
:10083C0026EC07F0898089928994899689A08FD0BB
:10084C0081A022D0030E286E080E276E770EE82E9C
:10085C00FED7272EFCD7282EFAD700F02F4A302AA5
:10086C002F502524D96E30502620DA6E010EDF6E03
:10087C002D4A2E2A2DC020F0200E216E080E226E3D
:10088C002B508AEC07F06BD081A222D0030E286E7D
:10089C00080E276E770EE82EFED7272EFCD7282EB3
:1008AC00FAD700F02F4A302A2F502524D96E305019
:1008BC002620DA6E020EDF6E2D4A2E2A2DC020F075
:1008CC00220E216E080E226E2B508AEC07F047D0B8
:1008DC0081A422D0030E286E080E276E770EE82E08
:1008EC00FED7272EFCD7282EFAD700F02F4A302A15
:1008FC002F502524D96E30502620DA6E030EDF6E71
:10090C002D4A2E2A2DC020F0240E216E080E226EA8
:10091C002B508AEC07F023D081A621D0030E286E31
:10092C00080E276E770EE82EFED7272EFCD7282E22
:10093C00FAD700F02F4A302A2F502524D96E305088
:10094C002620DA6E040EDF6E2D4A2E2A2DC020F0E2
:10095C00320E216E080E226E2B508AEC07F0899015
:10096C0089828994899689A28FD081A022D0030E86
:10097C00286E080E276E770EE82EFED7272EFCD792
:10098C00282EFAD700F02F4A302A2F502524D96E62
:10099C0030502620DA6E050EDF6E2D4A2E2A2DC021
:1009AC0020F0260E216E080E226E2B508AEC07F0DA
:1009BC006BD081A222D0030E286E080E276E770E04
:1009CC00E82EFED7272EFCD7282EFAD700F02F4A78
:1009DC00302A2F502524D96E30502620DA6E060E80
:1009EC00DF6E2D4A2E2A2DC020F0280E216E080E07
:1009FC00226E2B508AEC07F047D081A422D0030E34
:100A0C00286E080E276E770EE82EFED7272EFCD701
:100A1C00282EFAD700F02F4A302A2F502524D96ED1
:100A2C0030502620DA6E070EDF6E2D4A2E2A2DC08E
:100A3C0020F02A0E216E080E226E2B508AEC07F045
:100A4C0023D081A621D0030E286E080E276E770EB8
:100A5C00E82EFED7272EFCD7282EFAD700F02F4AE7
:100A6C00302A2F502524D96E30502620DA6E080EED
:100A7C00DF6E2D4A2E2A2DC020F0340E216E080E6A
:100A8C00226E2B508AEC07F0899089928984899682
:100A9C0089A48FD081A022D0030E286E080E276E59
:100AAC00770EE82EFED7272EFCD7282EFAD700F08B
:100ABC002F4A302A2F502524D96E30502620DA6E3A
:100ACC00090EDF6E2D4A2E2A2DC020F02C0E216E21
:100ADC00080E226E2B508AEC07F06BD081A222D02C
:100AEC00030E286E080E276E770EE82EFED7272EE3
:100AFC00FCD7282EFAD700F02F4A302A2F50252465
:100B0C00D96E30502620DA6E0A0EDF6E2D4A2E2A50
:100B1C002DC020F02E0E216E080E226E2B508AEC6A
:100B2C0007F047D081A422D0030E286E080E276E42
:100B3C00770EE82EFED7272EFCD7282EFAD700F0FA
:100B4C002F4A302A2F502524D96E30502620DA6EA9
:100B5C000B0EDF6E2D4A2E2A2DC020F0300E216E8A
:100B6C00080E226E2B508AEC07F023D081A621D0E0
:100B7C00030E286E080E276E770EE82EFED7272E52
:100B8C00FCD7282EFAD700F02F4A302A2F502524D4
:100B9C00D96E30502620DA6E0C0EDF6E2D4A2E2ABE
:100BAC002DC020F0360E216E080E226E2B508AECD2
:100BBC0007F0899089928994898689A6120081A070
:100BCC0022D0030E286E080E276E770EE82EFED765
:100BDC00272EFCD7282EFAD700F02F4A302A2F5078
:100BEC002524D96E30502620DA6E0D0EDF6E2D4A7C
:100BFC002E2A2DC020F01C0E216E080E226E2B50BA
:100C0C008AEC07F0120081A222D0030E286E080E87
:100C1C00276E770EE82EFED7272EFCD7282EFAD774
:100C2C0000F02F4A302A2F502524D96E3050262020
:100C3C00DA6E0E0EDF6E2D4A2E2A2DC020F01E0EFF
:100C4C00216E080E226E2B508AEC07F0120081A444
:100C5C0022D0030E286E080E276E770EE82EFED7D4
:100C6C00272EFCD7282EFAD700F02F4A302A2F50E7
:100C7C002524D96E30502620DA6E0F0EDF6E2D4AE9
:100C8C002E2A2DC020F01A0E216E080E226E2B502B
:100C9C008AEC07F0120081A61200030E286E080ED3
:100CAC00276E770EE82EFED7272EFCD7282EFAD7E4
:100CBC0000F02F4A302A2F502524D96E3050262090
:100CCC00DA6E100EDF6E2D4A2E2A2DC020F0380E53
:100CDC00216E080E226E2B508AEC07F012000600D3
:100CEC00FACF03F0FBCF04F0E9CF05F0EACF06F022
:100CFC00E1CF07F0E2CF08F0D9CF09F0DACF0AF054
:100D0C00F3CF0BF0F4CF0CF0F6CF0DF0F7CF0EF0D5
:100D1C00F8CF0FF0F5CF10F031C011F032C012F057
:100D2C0033C013F034C014F0F2A01FD081A81CD033
:100D3C00000E166E000E156E0BD0600E1524D96EBB
:100D4C00000E1620DA6EDF5012EC08F0154A162A47
:100D5C0015502F5C3050800A026E1650800A0258D3
:100D6C00D8B0EBD728EC08F0F29014C034F013C0D4
:100D7C0033F012C032F011C031F010C0F5FF0FC0CB
:100D8C00F8FF0EC0F7FF0DC0F6FF0CC0F4FF0BC050
:100D9C00F3FF0AC0DAFF09C0D9FF08C0E2FF07C0A1
:100DAC00E1FF06C0EAFF05C0E9FF04C0FBFF03C07A
:100DBC00FAFF3192110021EC08F06DEC07F018EC01
:100DCC0008F009EC08F0C1EC07F0000E206E010EE3
:100DDC00216E080E226E010E8AEC07F00B0E2A6EA5
:100DEC00260E296E5E0EE82EFED7292EFCD72A2E53
:100DFC00FAD71DEC08F0000E206E110E216E080EB5
:100E0C00226E010E8AEC07F00B0E2A6E260E296E4E
:100E1C005E0EE82EFED7292EFCD72A2EFAD71DEC13
:100E2C0008F0600E256E000E266E1EEC04F01A0EF5
:100E3C00296EF80EE82EFED7292EFCD700D0F1D75C
:100E4C002B042C10D8B42EBE0DD02E5004E10F0E56
:100E5C002D5CD8A007D0000E2C6E030E2B6E2D68C7
:100E6C002E681200020E2B182C10D8A412002EBEC5
:100E7C0012002E5004E1100E2D5CD8A01200000EB2
:100E8C002C6E010E2B6E2D682E681DEC08F01200D6
:100E9C004A0EF66E100EF76E000EF86E00EE2BF08A
:100EAC0010EE06F00900F5CFEEFFE550E150FAE147
:100EBC0000EE60F0640EEE6AE806FDE131903192CE
:100ECC00000EF86E080EF76E0001E1EF06F093804D
:100EDC0093829384938695909592959495969598F4
:100EEC00959A959C959E83908392839483968398F0
:100EFC00839A839C839E92909292929492968090E5
:100F0C008092809480961200236E000E246E020E46
:100F1C00236008D020500F0B8009246E2450FBEC6A
:100F2C0007F007D020500F0BC009246E2450FBECA7
:100F3C0007F021C01EF022C01FF0D8EC07F0120001
:100F4C00000E1A6E000E196E0FD0000E1C6E000EE5
:100F5C001B6E1C5007E1510E1B5CD8B003D01B4A12
:100F6C001C2AF7D7194A1A2A1950175C1A50185804
:100F7C00D8A01200EAD7000E186E0F0E176EA6EC52
:100F8C0007F0000E956E000E946E380EFBEC07F019
:100F9C00010EFBEC07F00C0EFBEC07F0060EFBEC65
:100FAC0007F012000AD01EC0F6FF1FC0F7FF0800A2
:100FBC00F550EDEC07F01E4A1F2A1EC0F6FF1FC0AD
:100FCC00F7FF0800F5500009D8B41200ECD71D6EDD
:100FDC001DC08CFF8B808B8200F08B92000E186EE4
:100FEC00010E176EA6EC07F012001D6E1DC08CFFD3
:100FFC008B908B8200F08B92000E186E030E176E86
:10100C00A6EC07F01200AC84340EAF6EAC98AB8E2D
:10101C00948C948EAC8A1200016EACA2FED701C0E7
:10102C00ADFF1200F286F180F290F28E1200010EEA
:10103C00FBEC07F01200D388D38AD38C120001008A
:0A104C00FFFFFFFF2F68306812005D
:020000040020DA
:08000000FFFFFFFFFFFFFFFF00
:020000040030CA
:0E00000000091F1EFF0181FF0FC00FE00F401F
:00000001FF
